:100000000C942D010C945E010C945E010C945E0125
:100010000C945E010C945E010C945E010C945E01E4
:100020000C945E010C945E010C945E010C945E01D4
:100030000C945E010C945E010C945E010C945E01C4
:100040000C945E010C945E010C945E010C945E01B4
:100050000C945E010C945E010C945E010C94900370
:100060000C945E010C945E010C945E010C945E0194
:100070000C945E010C945E010C945E010C945E0184
:100080000C945E010C945E010C945E010C945E0174
:100090000C945E010C945E010C945E010C945E0164
:1000A0000C945E010C945E010C945E010C945E0154
:1000B0000C945E010C945E010C945E010C945E0144
:1000C0000C945E010C945E010C945E010C945E0134
:1000D0000C945E010C945E010C945E010C945E0124
:1000E0000C945E010C94C6010C94F6070C94B301B9
:1000F0000C94CA010C94E6010C94A7010C94CE0157
:100100000C94AF010C94AB010C94C0010C94B6019B
:100110000C94D8010C94A1010C9413020C94E101ED
:100120000C94E2010C94D4010C94D9020C941903A0
:100130000C94BC010C94DC01000021002400270079
:100140002A002D00300033000101000004010701E6
:100150000A0100002200250028002B002E0031009B
:10016000340002010000050108010B01000020001D
:100170002300260029002C002F003200000100007F
:10018000030106010901050505050705080808081A
:10019000020202020A0A080804040404010101011F
:1001A000010101010303030303030303040707071A
:1001B0000C0C0C0C0C0C0C0C0202020206060606BF
:1001C000060606060B0B0B0B0B0B0B0B010210208C
:1001D000200808102040102040800201020108047D
:1001E0000201010204081020408080402010080411
:1001F000020180040201804020100804020108046A
:1002000002010102040810204080010204081020AD
:10021000408000000A0B02090C0D0E0807030401C0
:1002200000000000000000000000000000000000CE
:10023000000000000000000000000000000012119B
:10024000100000000000000000000000000000009E
:100250000000000000000000F60711241FBECFEFD1
:10026000D1E2DEBFCDBF00E00CBF12E0A0E0B2E003
:10027000E4E8F1E100E00BBF02C007900D92A03866
:10028000B107D9F723E0A0E8B2E001C01D92AB327C
:10029000B207E1F711E0CDE2D1E000E006C021971E
:1002A0000109802FFE010E94B808CC32D10780E0FE
:1002B0000807A9F70E94DA030C94C0080C94000008
:1002C00096E0899FD0011124AF56BD4F90967C9344
:1002D0006E935F9791E091969C939197E091FE02C7
:1002E000F091FF029091FD02992339F0309751F07F
:1002F000811108C08091AD021994309719F05C9675
:100300008C91FACF08958150823108F05AC0E82FBD
:10031000F0E08827E157FE4F8F4F0C94B808AF01EB
:10032000B301A101A701AB01E101B601BC01C0010C
:10033000C601CA01CE01D401D801E101DC01E2010C
:10034000E601809180008F778093800008958091EE
:1003500080008F7DF9CF80918000877FF5CF84B5B5
:100360008F7784BD089584B58F7DFBCF8091B000D9
:100370008F778093B00008958091B0008F7DF9CF82
:10038000809190008F7780939000089580919000E5
:100390008F7DF9CF80919000877FF5CF8091A0006D
:1003A0008F778093A00008958091A0008F7DF9CF72
:1003B0008091A000877FF5CF809120018F77809377
:1003C00020010895809120018F7DF9CF8091200137
:1003D000877FF5CFCF93DF93282F30E0F901EE5ED2
:1003E000FD4F8491F901E453FE4FD491F901EA578E
:1003F000FE4FC491CC23A1F081110E948301EC2F08
:10040000F0E0EE0FFF1FE459FE4FA591B491EC917F
:10041000ED2381E090E009F480E0DF91CF91089531
:1004200080E090E0FACF862F0C94EA011F93CF93DF
:10043000DF93282F30E0F901EE5EFD4F8491F90142
:10044000E453FE4FD491F901EA57FE4FC491CC23F7
:10045000A9F0162F81110E948301EC2FF0E0EE0F1E
:10046000FF1FEE5AFE4FA591B4918FB7F894EC910F
:10047000111108C0D095DE23DC938FBFDF91CF919F
:100480001F910895DE2BF8CFCF93DF93C82FD0E0D4
:1004900080911803D81758F4ED2FF0E0E050FD4F8D
:1004A0006091030387850E941602DF5FF1CFEC2F76
:1004B000F0E0E050FD4F609101038781DF91CF9123
:1004C0000C941602CF93DF93C82FD0E080911703CE
:1004D000D81758F4ED2FF0E0E050FD4F6091010384
:1004E00087810E941602DF5FF1CFEC2FF0E0E05031
:1004F000FD4F609103038785DF91CF910C94160225
:100500001F93CF93DF93C82FD0E0C050DD4F609191
:1005100000038F810E94160210E06A9680911803F2
:100520001817A8F4E12FF0E0888190E0012E02C0B6
:10053000959587950A94E2F780FF07C0E050FD4F3C
:100540006091020387850E9416021F5FE7CFDF914B
:10055000CF911F9108950F931F93CF93C82FE82F2A
:10056000F0E0E050FD4F6091020387850E94160283
:1005700001E010E002C0000F111FCA95E2F7C0E0D1
:1005800080911703C81788F4EC2FF0E0E050FD4F7E
:10059000828D90E080239123892B29F060910003C4
:1005A00087810E941602CF5FEBCFCF911F910F91F1
:1005B0000895862F642F0C941602CF93DF9390E05A
:1005C000FC01E453FE4F24918A579E4FFC01849115
:1005D0008823C9F090E0880F991FFC01E85CFE4F6A
:1005E000A591B491FC01EE5AFE4FC591D4916111D1
:1005F0000DC09FB7F8948C91209582238C938881AD
:10060000282328839FBFDF91CF910895623051F452
:100610009FB7F8943C91822F809583238C93E88137
:100620002E2BEFCF8FB7F894EC912E2B2C938FBFFE
:10063000EACF862F642F0C94DD028230910538F0CA
:10064000880F991F880F991F05970197F1F7089553
:100650002FB7F89460918102709182028091830299
:10066000909184022FBF08950F931F93CF93DF9330
:10067000C82FD62F86E0C89FF0011124EF56FD4FFA
:1006800011A2878D90A181309105F1F058F0823050
:100690009105F1F1039709F440C0DF91CF911F91CB
:1006A0000F9108956623C9F361E070E08C2F0E94DA
:1006B00060010E9428036093E9027093EA0280932C
:1006C000EB029093EC02E9CF0E9428030091E9022B
:1006D0001091EA022091EB023091EC02AB01BC01D7
:1006E000401B510B620B730B8091FB029091FC023B
:1006F000B0E0A0E084179507A607B70748F462E0CA
:1007000070E08C2FDF91CF911F910F910C946001BD
:1007100063E070E0D111C1CFF4CF70E060E0F1CFC1
:100720001F920F920FB60F9211242F933F938F9326
:100730009F93AF93BF938091810290918202A09189
:100740008302B09184023091800223E0230F2D3781
:1007500058F50196A11DB11D20938002809381025E
:1007600090938202A0938302B093840280918502C9
:1007700090918602A0918702B09188020196A11DF6
:10078000B11D8093850290938602A0938702B09357
:100790008802BF91AF919F918F913F912F910F90C0
:1007A0000FBE0F901F90189526E8230F0296A11DEB
:1007B000B11DD2CFCF93DF93CDB7DEB765970FB61C
:1007C000F894DEBF0FBECDBF789484B5826084BD3F
:1007D00084B5816084BD85B5826085BD85B5816045
:1007E00085BD80916E00816080936E0010928100C3
:1007F000809181008260809381008091810081607E
:10080000809381008091800081608093800080913E
:10081000B10084608093B1008091B00081608093CA
:10082000B00080919100826080939100809191004E
:10083000816080939100809190008160809390000E
:100840008091A10082608093A1008091A1008160CD
:100850008093A1008091A00081608093A00080918E
:100860002101826080932101809121018160809328
:1008700021018091200181608093200180917A0084
:10088000846080937A0080917A00826080937A00FD
:1008900080917A00816080937A0080917A008068EC
:1008A00080937A001092C1008091180290911902F1
:1008B000A0911A02B0911B0289879A87AB87BC87E7
:1008C00088E0ECE1F2E09E012F5F3F4F7901D90112
:1008D00001900D928A95E1F710920403109205039E
:1008E0001092060384E08093170388E08093180336
:1008F0001092000381E08093020380930103109221
:100900000303F901AFE0B3E0CE01099621912D93E5
:10091000E817F907D9F78985809307038A858093BB
:1009200008038B85809309038C8580930A0310E06C
:10093000809117031817A0F4812F90E0AC0140506C
:100940005D4F6A0161E0DA0117968C910E94DD0229
:1009500060910103F60187810E9416021F5FE8CFB4
:1009600010E080911803181750F090911703EAE1F6
:10097000F3E080E09817B9F011928F5FFBCF812FE1
:1009800090E09C0120503D4F690161E0D9011F9624
:100990008C910E94DD0260910303F60187850E941D
:1009A00016021F5FDECF80E00E94620280E00E949C
:1009B000440288EC90E090932703809326031092E2
:1009C00029031092280310922A03412C512C320142
:1009D0004394F1E0F093FD020E9428030091ED02A0
:1009E0001091EE022091EF023091F002AB01BC01B8
:1009F000401B510B620B730B8091F9029091FA022C
:100A0000B0E0A0E084179507A607B70708F00AC171
:100A100010E08091F702181760F4E091F302F09172
:100A2000F402E10FF11D62E080810E94DD021F5F90
:100A3000F0CF312C8091F802381608F061C0C32C39
:100A4000D12CE091F502F091F602EC0DFD1D61E074
:100A500080810E94DD02E091F502F091F602EC0D3A
:100A6000FD1D60E080810E941602D301C201032CAB
:100A700004C0880F991FAA1FBB1F0A94D2F74C010C
:100A80005C01A094B094212C8091F702281608F5FF
:100A9000022D10E0E091F302F091F402E00FF11F5B
:100AA00080810E94EA010C5F1F4F000F111FF801A7
:100AB000EF56FD4F892B41F4808191818829992936
:100AC000918380832394E0CF808191818A219B212F
:100AD000F7CFE091F502F091F602EC0DFD1D61E01B
:100AE00080810E9416028091F5029091F602C80E54
:100AF000D91E60E0D6018C910E94DD0233949ACF1A
:100B000071E9A72E72E0B72E8501F801878D90A1BB
:100B1000892B31F4148E2FEF3FEF368F258F11A2E2
:100B20000A5F1F4F32E00D3C130779F7912C80913B
:100B3000F702981608F053C0812CC92CD12CCC0C8C
:100B4000DD1CA60147565D4F6A012091F80282160E
:100B500008F043C0D6016D917C91082C02C07695B7
:100B600067950A94E2F7929E90011124280D311D99
:100B7000E1E9F2E080E0458D568D2417350709F450
:100B800033C28F5F36968A30B1F760FF24C0E1E947
:100B9000F2E090E080E0448D411118C0E091F10254
:100BA000F091F202E20FF31F4081B6E0B89FF0012E
:100BB000B99FF00D1124EF56FD4F448F368F258FCE
:100BC00010A2178E61E00E94340305C0019636968C
:100BD0008A30910501F78394B8CF9394A8CFD12C94
:100BE000F50181A18111D82EF6E0AF0EB11C0A15D6
:100BF0001B05B1F70E9428036093ED027093EE028B
:100C00008093EF029093F002DD2061F08091B202B8
:100C1000882341F08091B0029091B1024091AD02E1
:100C2000019719F01092FD0240E080908D029090A3
:100C30008E02A0908F02B090900281149104A104C2
:100C4000B10409F077C0442309F474C060918B02A9
:100C500070918C02683E23E0720708F06BC020910F
:100C6000890230918A022F5F3F4F30938A0220938E
:100C700089025AE0569FC001579F900D1124C097DA
:100C8000840F911D47FD9A9590938C0280938B025F
:100C90002430310571F40E94280360938D02709313
:100CA0008E0280938F029093900210928A0210928B
:100CB000890280908B0290908C02B12CA12C4091E3
:100CC00017034D87242E312C8101000F111F000FB7
:100CD000111FF801E95AFD4F80819181A281B381F2
:100CE00088169906AA06BB06F4F1F7018E2F8E1915
:100CF0009D85891708F485C0A1E02A1A3108A0E073
:100D0000B3E0970190E080E0ED858E1708F097C082
:100D1000F90141919F01E42FF0E0E25DFD4F608118
:100D20002816390609F489C05A966C935A97019689
:100D30001196EACF0E942803681979098A099B094C
:100D4000603D77408105910509F0B3CF10928C0288
:100D500010928B0210928D0210928E0210928F02CE
:100D600010929002A6CFD801AD5ABD4F8D919D91A2
:100D70000D90BC91A02DA3019201281B390B4A0BA9
:100D80005B0BDA01C90188169906AA06BB060CF4AA
:100D9000ACCF6F01FF86EE862CEFA1012403C001CA
:100DA000259F900D11249D8B8C8BE7E5CE16E2E0FC
:100DB000DE0651F1F4E0CF1AD108EC89FD89EC0D83
:100DC000FD1DE00FF11F2081318142815381288B6D
:100DD000398B4A8B5B8BC501B4010E945D08AE85DF
:100DE000BF852D93BF87AE87A22FB0E028893989B0
:100DF0004A895B890E947C08861A970AA80AB90A60
:100E0000D4CFB5E2B19372CF80910603811174CF34
:100E1000910121503109E82FF0E0E217F3070CF0BF
:100E20006BCFEE0DFF1D9081911104C0B4E2B08331
:100E30008F5FF1CF9A30E0F75FCF606875CF809118
:100E40000503811197C03FB7F89480918502909176
:100E50008602A0918702B091880226B5A89B05C0A2
:100E60002F3F19F00196A11DB11D3FBFBA2FA92F29
:100E7000982F8827820F911DA11DB11D42E0880F78
:100E8000991FAA1FBB1F4A95D1F720912A034091B1
:100E900022035091230360912403709125034C0198
:100EA0005D01841A950AA60AB70A40912803509159
:100EB0002903211104C04091260350912703052ED8
:100EC000000C660B770B84169506A606B7066CF128
:100ED0008093220390932303A0932403B0932503CC
:100EE0008091190390910403911127C0222391F05E
:100EF00010922A03809119038F5F809319039091B8
:100F00001803891710F010921903809119030E9499
:100F1000AB020BC00E9462028091280390912903CA
:100F2000892B41F3F1E0F0932A0320E030E0232BFA
:100F300009F44FCD0E9400004CCD222391F0109275
:100F40002A03809119038F5F8093190390911703EF
:100F5000891710F010921903809119030E948002E2
:100F6000E4CF0E9444028091280390912903892BA9
:100F700041F3D8CF8091040310E081111AC0809111
:100F80001803181790F6812F0E94AB028091260358
:100F9000909127030E941D03812F0E94620280917D
:100FA000280390912903009711F00E941D031F5FF1
:100FB000E6CF80911703181708F0B7CF812F0E9452
:100FC000800280912603909127030E941D03812FA8
:100FD0000E9444028091280390912903009711F008
:100FE0000E941D031F5FE5CF6170EDCD109293024B
:100FF00010929702109296021092980288E292E064
:101000009093920280939102EDEAF2E010821482B2
:1010100013821582369682E0E93EF807B9F784E03C
:1010200092E09093F4028093F30280E092E0909338
:10103000F6028093F50284E08093F7028093F80231
:1010400088E092E09093F2028093F1028AE090E0CF
:101050009093FA028093F90284EF91E09093FC025E
:101060008093FB021092FF021092FE021092ED029A
:101070001092EE021092EF021092F0021092FD0216
:1010800080ED97E090932703809326031092290325
:101090001092280310922A0310921703109219033A
:1010A000109222031092230310922403109225031E
:1010B00010920403109205030895052E97FB1EF469
:1010C00000940E94740857FD07D00E94870807FC0F
:1010D00003D04EF40C9474085095409530952195AA
:1010E0003F4F4F4F5F4F0895909580957095619554
:1010F0007F4F8F4F9F4F08950E94A908A59F900D85
:10110000B49F900DA49F800D911D11240895A1E21C
:101110001A2EAA1BBB1BFD010DC0AA1FBB1FEE1F71
:10112000FF1FA217B307E407F50720F0A21BB30BBC
:10113000E40BF50B661F771F881F991F1A9469F738
:1011400060957095809590959B01AC01BD01CF0194
:101150000895A29FB001B39FC001A39F700D811D90
:101160001124911DB29F700D811D1124911D0895B0
:10117000EE0FFF1F881F8BBF0790F691E02D19948B
:04118000F894FFCF11
:101184000504030209080706313233413435364277
:10119400373839432A302344161718192E2F303183
:1011A40032333435000000001903D90213023F061C
:1011B4005B4F666D7D077F6F777C395E79713D7615
:1011C400300E763800543F7367506D783E3E00769B
:1011D4006E5B0040806308010000000A00000064A8
:1011E400000000E803000010270000A08601004072
:1011F400420F008096980000E1F50500CA9A3B0072
:00000001FF
